:020000040000FA
:020000000528D1
:040002000034003492
:02000800792855
:06000A0083120313903085
:10001000980041309F00831603138C1624309800FB
:1000200019309900813086000514071387179F0146
:10003000D8308B0081018030960081309500831686
:1000400003174030870001308800890183120313B1
:10005000A201A301A401A501A601A701A801A9016C
:1000600087019F14BD209F1833281E08A200220874
:10007000333C031C3E280130A40056282208653C6E
:10008000031C45280230A40056282208973C031C74
:100090004C280330A40056282208C93C031C5328CE
:1000A0000430A40056280530A400562886155B208D
:1000B00086115B2031282408820762286528682879
:1000C0006B286E28FA307120080064307120080017
:1000D0003230712008001930712008000D30712075
:1000E0000800A7006430A600A60B7428A70B72288E
:1000F0000800A000030EA1008C1E982898189628CE
:100100001A08A800313A0319AE282808323A031910
:10011000B1282808333A03199D2828082808343ABA
:100120000319932898282208B420B8281812181602
:100130008B189D280B18A728B8288B10251CA128E0
:10014000A42806152514B82806112510B828060875
:100150000B10861BB828291CAE28B1288614291438
:10016000B82886102910B8280C1EB4289900080059
:10017000210E8300A00E200E0900FA30A30000001B
:0C018000000000000000A30BBF280800D6
:02400E00E123AC
:02401000FF3F70
:00000001FF
